:020000040800F2
:100000000050002095120008851100088711000893
:10001000891100088B1100088D11000800000000F4
:100020000000000000000000000000008F11000828
:1000300091110008000000009311000895110008BC
:10004000DD120008DD120008DD120008DD120008D4
:10005000DD120008DD120008DD120008DD120008C4
:10006000DD120008DD120008DD120008DD120008B4
:10007000DD120008DD120008DD120008DD120008A4
:10008000DD120008DD120008DD120008DD12000894
:10009000DD120008DD120008DD120008DD12000884
:1000A000DD120008DD120008DD120008DD12000874
:1000B000DD120008DD120008DD120008DD12000864
:1000C000DD120008DD120008DD120008DD12000854
:1000D000DD120008DD120008DD120008DD12000844
:1000E000DD120008DD120008DD120008000000002B
:1000F0000000000000000000000000000000000000
:0C01000000000000000000005FF808F1A3
:10010C0010B5054C237833B9044B13B10448AFF345
:10011C0000800123237010BD0C00002000000000A3
:10012C003813000808B5034B1BB103490348AFF360
:10013C00008008BD000000001000002038130008EB
:10014C0008B501224FF40041014800F0A4FA08BDA3
:10015C00000C014008B500224FF40041014800F0AA
:10016C009AFA08BD000C014008B510B9FFF7F2FF70
:10017C0008BDFFF7E5FF08BD08B501224FF480412B
:10018C00014800F088FA08BD000C014008B50022B7
:10019C004FF48041014800F07EFA08BD000C01408C
:1001AC0008B5FFF7CDFFFFF7E7FFFFF7D3FFFFF72A
:1001BC00EDFF08BD08B5FFF7DFFFFFF7E7FF08BD50
:1001CC0038B529B140F00105FFF7E0FF07240AE03C
:1001DC0000F0FE05F8E70120A0402840FFF7C4FF1F
:1001EC00FFF7E8FF013C002CF5DA38BD00B585B00F
:1001FC00032303930023019304A94FF4004341F814
:10020C00103D034800F04AF905B05DF804FB00BF4F
:10021C00000C014000B585B0032303931123019317
:10022C0004A94FF4004341F8103D034800F036F99F
:10023C0005B05DF804FB00BF000C014008B54FF49D
:10024C000041024800F020FA08BD00BF000C01403C
:10025C0010B5FFF7CBFFFFF78FFF0A24002C04DD4E
:10026C00FFF7ECFF40B1013CF8E70024FFF78EFFED
:10027C00FFF7D0FF204610BD0124F7E738B505463F
:10028C00FFF784FF072407E00120A0402840FFF778
:10029C006BFFFFF78FFF013C002CF5DA38BD08B57A
:1002AC00FFF758FFFFF768FFFFF74AFF08BD70B56F
:1002BC0004460E46FFF774FF00217820FFF780FFFD
:1002CC00FFF7C6FF054600B101253046FFF7D6FF04
:1002DC00FFF7BEFF064600B12E462046FFF7CEFFC5
:1002EC00FFF7B6FF044618B9FFF7D9FF204670BDDB
:1002FC003446F9E708B500218D20FFF7D8FF00211F
:10030C001420FFF7D4FF0021AF20FFF7D0FF08BD6A
:10031C0008B500218D20FFF7CAFF00211020FFF740
:10032C00C6FF0021AE20FFF7C2FF08BD10B5044682
:10033C000E4B18784FF47A73B3FBF0F30C4A106839
:10034C00B0FBF3F000F094F868B90F2C01D9012040
:10035C0010BD002221464FF0FF3000F057F8054B3E
:10036C001C60002010BD012010BD00BF000000204B
:10037C00080000200400002008B5074A136843F069
:10038C0010031360032000F02FF80020FFF7CEFFBE
:10039C0000F0D0FE002008BD00200240034A116886
:1003AC00034B1B780B441360704700BF28000020E0
:1003BC0000000020014B1868704700BF2800002087
:1003CC0038B50446FFF7F6FF0546B4F1FF3F02D0FF
:1003DC00044B1B781C44FFF7EDFF401B8442FAD8FA
:1003EC0038BD00BF00000020074AD36823F4E06347
:1003FC001B041B0C000200F4E060184340F0BF60CB
:10040C0040F40030D060704700ED00E030B4164B83
:10041C00DB68C3F30223C3F10704042C28BF0424B4
:10042C001D1D062D17D9033B012505FA04F4013CCB
:10043C002140994005FA03F3013B1340194300286E
:10044C000BDB0901C9B200F1604000F5614080F896
:10045C00001330BC70470023E6E700F00F000901E1
:10046C00C9B2024B1954F4E700ED00E014ED00E0C2
:10047C000138B0F1807F0AD2064B5860F021064A51
:10048C0082F823100020986007221A607047012020
:10049C00704700BF10E000E000ED00E0F0B583B065
:1004AC000026344671E0002D00F0A180012D00D112
:1004BC00CE68FF2B00F2AF808646FF2B00F2AE8099
:1004CC00A500DEF800200F27AF4022EA070206FA4B
:1004DC0005F52A43CEF800204A6812F0805F53D00D
:1004EC00634A956945F001059561926902F0010234
:1004FC000192019AA508AF1C5E4A52F8272004F01D
:10050C000307BF004FF00F0E0EFA07FE22EA0E0291
:10051C00DFF870E1704500F088800EF5806E704554
:10052C0000F086800EF5806E704500F084800EF52C
:10053C00806E704576D04FF0040E0EFA07F73A43F2
:10054C0002354C4F47F825204A6812F4803F75D08D
:10055C00494D2A681A432A604A6812F4003F73D046
:10056C00454D6A681A436A604A6812F4801F71D05C
:10057C00414DAA681A43AA604A6812F4001F6FD052
:10058C003D4DEA681343EB6001340F2C6ED8012209
:10059C00A2400B6813409A42F6D14D68122D30D010
:1005AC000BD8022D2AD07FF67EAF032D2FD0112D24
:1005BC007FF47FAFCE6804367BE7304FBD4216D058
:1005CC000CD92F4FBD4212D007F58037BD420ED04B
:1005DC00A7F58017BD427FF46CAF08E0A7F5801734
:1005EC00BD4204D007F58037BD427FF462AF8D6801
:1005FC007DB1012D08D0426108265AE7CE68083635
:10060C0057E7CE680C3654E70261082651E70026FE
:10061C004FE704264DE700F1040E4EE7A4F1080560
:10062C00AD004EE74FF0030E87E74FF0000E84E766
:10063C004FF0010E81E74FF0020E7EE70E4D2A6857
:10064C0022EA03022A6087E70B4D6A6822EA03025A
:10065C006A6089E7084DAA6822EA0302AA608BE760
:10066C00054DEA6822EA0303EB608DE703B0F0BDA9
:10067C000010024000000140000401400000211065
:10068C0000003110000801408368194201D100209C
:10069C0070470120704712B909040161704701616C
:1006AC007047000082B0084B1B68084AA2FB03236A
:1006BC005B0A00FB03F0019000BF019B5A1E0192E4
:1006CC00002BF9D102B0704708000020D34D621006
:1006DC0070B582B00446036813F0010F3DD0AC4BEB
:1006EC005B6803F00C03042B2ED0A94B5B6803F062
:1006FC000C03082B23D06368B3F5803F51D0002B3B
:10070C0055D103F1804303F504331A6822F4803287
:10071C001A601A6822F480221A606368002B60D079
:10072C00FFF748FE05469A4B1B6813F4003F14D1A3
:10073C00FFF740FE401B6428F5D90320AFE1944B32
:10074C005B6813F4803FD6D0914B1B6813F4003FC9
:10075C0003D06368002B00F09F81236813F0020F15
:10076C0065D08B4B5B6813F00C0F4ED0884B5B68DD
:10077C0003F00C03082B43D02369002B79D0012202
:10078C00844B1A60FFF716FE0546814B1B6813F06D
:10079C00020F65D1FFF70EFE401B0228F5D903208E
:1007AC007DE17B4A136843F480331360B5E7B3F5FE
:1007BC00A02F09D0764B1A6822F480321A601A687E
:1007CC0022F480221A60A8E703F18043A3F53C339E
:1007DC001A6842F480221A601A6842F480321A6055
:1007EC009BE7FFF7E7FD0546694B1B6813F4003FD9
:1007FC00B3D0FFF7DFFD401B6428F5D903204EE191
:10080C00634B5B6813F4803FB6D1614B1B6813F0EC
:10081C00020F04D02369012B01D001203FE15C4A77
:10082C00136823F0F803616943EAC103136023687A
:10083C0013F0080F32D0A369002B6ED00122564B57
:10084C001A60FFF7B7FD0546514B5B6A13F0020FB8
:10085C0021D1FFF7AFFD401B0228F5D903201EE183
:10086C004B4A136823F0F803616943EAC103136030
:10087C00DDE70022474B1A60FFF79CFD0546444B11
:10088C001B6813F0020FD2D0FFF794FD401B022817
:10089C00F5D9032003E10120FFF704FF236813F0CF
:1008AC00040F00F099803A4BDB6913F0805F46D15E
:1008BC00374BDA6942F08052DA61DB6903F080531E
:1008CC000193019B0125354B1B6813F4807F38D0B5
:1008DC00E368012B49D0002B4DD103F1804303F584
:1008EC0004331A6A22F001021A621A6A22F0040214
:1008FC001A62E368002B5DD0FFF75CFD0646244BC3
:10090C001B6A13F0020F66D1FFF754FD801B41F2F6
:10091C0088339842F3D90320C1E000221E4B1A60A1
:10092C00FFF748FD05461A4B5B6A13F0020FB5D072
:10093C00FFF740FD401B0228F5D90320AFE000254E
:10094C00C1E7164A136843F480731360FFF732FD56
:10095C000646124B1B6813F4807FB9D1FFF72AFDB2
:10096C00801B6428F5D9032099E0094A136A43F0E7
:10097C0001031362BDE7052B12D0054B1A6A22F056
:10098C0001021A621A6A22F004021A62B1E700BF6D
:10099C0000100240000042428004424200700040BD
:1009AC00414B1A6A42F004021A621A6A42F00102BE
:1009BC001A629EE7FFF7FEFC06463B4B1B6A13F0E0
:1009CC00020F08D0FFF7F6FC801B41F288339842E7
:1009DC00F3D9032063E0E5B9E369002B5ED0324A1A
:1009EC00526802F00C02082A5BD0022B17D00022AE
:1009FC002E4B1A60FFF7DEFC04462B4B1B6813F0E2
:100A0C00007F47D0FFF7D6FC001B0228F5D9032046
:100A1C0045E0254AD36923F08053D361DCE70022FB
:100A2C00224B1A60FFF7C6FC05461F4B1B6813F0E0
:100A3C00007F06D0FFF7BEFC401B0228F5D903202F
:100A4C002DE0236AB3F5803F1AD017494B6823F485
:100A5C007413226A606A024313434B600122134BE6
:100A6C001A60FFF7A7FC04460F4B1B6813F0007FBE
:100A7C000ED1FFF79FFC001B0228F5D903200EE0D6
:100A8C00094A536823F40033A1680B435360DCE735
:100A9C00002004E0002002E0012000E0002002B071
:100AAC0070BD0120FBE700BF001002406000424215
:100ABC0010B586B0154C94E80F000DF1180E0EE928
:100ACC000F00238AADF80430114B5B6803F00C0265
:100ADC00082A18D1C3F38342724412F8102C13F471
:100AEC00803F03D10B4800FB02F00DE0084B5B6824
:100AFC00C3F34043734413F8143C074800FB02F063
:100B0C00B0FBF3F000E0044806B010BD5013000831
:100B1C000010024000093D0000127A00624B1B6875
:100B2C0003F007038B420CD25F4A136823F00703D0
:100B3C000B431360136803F00703994201D00120A3
:100B4C00704770B5036813F0020F17D013F0040F41
:100B5C0004D0564A536843F4E0635360036813F0BF
:100B6C00080F04D0514A536843F4605353604F4A02
:100B7C00536823F0F0038468234353600D46044606
:100B8C00036813F0010F52D04368012B23D0022BC2
:100B9C0028D0464A126812F0020F00F082804349B6
:100BAC004A6822F0030213434B60FFF703FC06462E
:100BBC006368012B1DD0022B2AD03C4B5B6813F0D1
:100BCC000C0F34D0FFF7F6FB801B41F288339842B0
:100BDC00F3D9032070BD354A126812F4003FDED100
:100BEC00012070BD314A126812F0007FD7D101206C
:100BFC0070BD2E4B5B6803F00C03042B17D0FFF772
:100C0C00D9FB801B41F288339842F2D9032070BD86
:100C1C00264B5B6803F00C03082B08D0FFF7CAFBCC
:100C2C00801B41F288339842F2D9032070BD1E4BD1
:100C3C001B6803F007039D420CD21B4A136823F078
:100C4C0007032B431360136803F007039D4201D085
:100C5C00012070BD236813F0040F06D0134A5368AB
:100C6C0023F4E063E1680B435360236813F0080F2F
:100C7C0007D00E4A536823F46053216943EAC10339
:100C8C005360FFF715FF094B5B68C3F30313084A66
:100C9C00D35CD840074B18600020FFF747FB0020BF
:100CAC0070BD012070BD00BF00200240001002404A
:100CBC006413000808000020014B1868704700BF3F
:100CCC000800002008B5FFF7F7FF044B5B68C3F37F
:100CDC000223034AD35CD84008BD00BF0010024079
:100CEC007413000808B5FFF7E7FF044B5B68C3F308
:100CFC00C223034AD35CD84008BD00BF0010024099
:100D0C00741300082DE9F04705460268136923F4B3
:100D1C004053C1680B4313618368026913434269F2
:100D2C0013430168CA6822F4B05222F00C02134338
:100D3C00CB600268536923F4407381690B435361A0
:100D4C00D0F80080594B984557D0FFF7BBFF00EB0C
:100D5C00800000EB80006C68A400B0FBF4F4544FEE
:100D6C00A7FB043464092601FFF7ACFF00EB8000FD
:100D7C0000EB80006C68A400B0FBF4FAFFF7A2FF54
:100D8C0000EB800000EB80006C68A400B0FBF4F476
:100D9C00A7FB043464094FF0640909FB14A4240173
:100DAC003234A7FB0434640904F0F0043444FFF734
:100DBC0089FF00EB800000EB80006E68B600B0FB92
:100DCC00F6F6FFF77FFF00EB800000EB80006B680E
:100DDC009B00B0FBF3F0A7FB0030400909FB106946
:100DEC004FEA091909F13209A7FB0937C7F3431771
:100DFC002744C8F80870BDE8F087FFF773FF00EBD5
:100E0C00800000EB80006C68A400B0FBF4F4284F69
:100E1C00A7FB043464092601FFF764FF00EB800094
:100E2C0000EB80006C68A400B0FBF4FAFFF75AFFEB
:100E3C0000EB800000EB80006C68A400B0FBF4F4C5
:100E4C00A7FB043464094FF0640909FB14A42401C2
:100E5C003234A7FB0434640904F0F0043444FFF783
:100E6C0041FF00EB800000EB80006E68B600B0FB29
:100E7C00F6F6FFF737FF00EB800000EB80006B68A5
:100E8C009B00B0FBF3F3A7FB03235B0909FB13697E
:100E9C004FEA091909F13209A7FB0937C7F34317C0
:100EAC002744C8F80870BDE8F08700BF003801403F
:100EBC001F85EB5158B310B5044690F839300BB37D
:100ECC00242384F839302268D36823F40053D36088
:100EDC002046FFF717FF2268136923F49043136130
:100EEC002268536923F02A0353612268D36843F4C0
:100EFC000053D3600020E063202384F8393084F859
:100F0C003A3010BD80F8383000F082F9D8E7012073
:100F1C007047000030B587B0002402940394049409
:100F2C000594144B9A6942F008029A619A6902F08E
:100F3C0008020092009A9A6942F004029A619B6935
:100F4C0003F004030193019B0B4D22464CF240012C
:100F5C002846FFF7A0FB4CF24003029301230393B6
:100F6C0004940223059302A92846FFF797FA07B0C9
:100F7C0030BD00BF00100240000C014010B590B015
:100F8C002822002106A800F0C9F90024019402943B
:100F9C000394049405940223069301230A931023CB
:100FAC000B9306A8FFF794FB0F2301930294039471
:100FBC0004940594214601A8FFF7B0FD10B010BDB4
:100FCC0030B5ADF2044D4FF48062F021684600F06C
:100FDC00A5F9FFF7D1F9FFF7D1FFFFF79BFF00F061
:100FEC00FDF8C820FFF7ECF90021AE20FFF75FF900
:100FFC0000210220FFF75BF900211020FFF757F9C1
:10100C0000214020FFF753F90021B020FFF74FF9E2
:10101C0000218120FFF74BF90021FF20FFF747F952
:10102C000021A120FFF743F90021A620FFF73FF98B
:10103C000021A820FFF73BF900213F20FFF737F9EB
:10104C000021AD20FFF733F900218B20FFF72FF99A
:10105C0000213220FFF72BF90021C820FFF727F9D8
:10106C000021D320FFF723F900210846FFF71FF9D1
:10107C000021D520FFF71BF900218020FFF717F97D
:10108C000021D920FFF713F900211F20FFF70FF9DA
:10109C000021DA20FFF70BF900211220FFF707F9E6
:1010AC000021DB20FFF703F900214020FFF7FFF8B8
:1010BC000021AF20FFF7FBF800250DE004EBC51372
:1010CC0040211DF80300FFF7F2F80134E4B214F0EC
:1010DC00800FF3D00135EDB2072D0FD8A5F15000DC
:1010EC000021C0B2FFF7E3F800210220FFF7DFF880
:1010FC0000211020FFF7DBF80024E8E70B4C01225D
:10110C0040212046FFF7C7FAFFF702F94FF47A7037
:10111C00FFF756F9002240212046FFF7BCFAFFF7F3
:10112C00E9F84FF47A70FFF74BF9E7E7000C014050
:10113C007047000082B00E4B9A6942F001029A612E
:10114C009A6902F001020092009ADA6942F0805228
:10115C00DA61DB6903F080530193019B054A536804
:10116C0023F0E06343F00073536002B0704700BF9C
:10117C0000100240000001407047FEE7FEE7FEE76A
:10118C00FEE770477047704708B5FFF707F908BDD1
:10119C000F4B1A6842F001021A6059680D4A0A4056
:1011AC005A601A6822F0847222F480321A601A682B
:1011BC0022F480221A605A6822F4FE025A604FF41C
:1011CC001F029A604FF00062034B9A60704700BF99
:1011DC00001002400000FFF800ED00E008B50A48DE
:1011EC000A4B03604FF4E133436000238360C36018
:1011FC0003610C2242618361C361FFF75BFE00B99E
:10120C0008BDFFF795FFFBE72C00002000380140DC
:10121C0010B586B0002302930393049305930268E0
:10122C00174B9A4201D006B010BD03F558439A698A
:10123C0042F480429A619A6902F480420092009AC8
:10124C009A6942F004029A619B6903F004030193CA
:10125C00019B4FF400730293022303930323059322
:10126C00084C02A92046FFF719F94FF4806302934A
:10127C0000230393049302A92046FFF70FF9D2E74A
:10128C000038014000080140002103E00B4B5B5883
:10129C00435004310A480B4B42189A42F6D30A4A7F
:1012AC0002E0002342F8043B084B9A42F9D3FFF7C3
:1012BC006FFF00F00FF8FFF783FE704784130008F0
:1012CC00000000200C0000200C0000206C0000200E
:1012DC00FEE7000070B500250C4E0D4CA41BA410AD
:1012EC00A54209D100F022F800250A4E0A4CA41B95
:1012FC00A410A54205D170BD56F82530984701358C
:10130C00EEE756F8253098470135F2E77C130008D4
:10131C007C1300087C130008801300080346024469
:10132C00934200D1704703F8011BF9E7F8B500BFF1
:10133C00F8BC08BC9E467047F8B500BFF8BC08BCAA
:04134C009E46704702
:1013500002030405060708090A0B0C0D0E0F1010F6
:101360000102000000000000000000000102030470
:0C13700006070809000000000102030449
:04137C003101000833
:041380000D01000853
:0C138400010000001000000000A24A045C
:040000050800129548
:00000001FF
