:020000040800F2
:10000000005000203D260008F9240008FB240008C9
:10001000FD240008FF24000801250008000000005E
:1000200000000000000000000000000003250008A0
:100030000525000800000000072500080925000824
:1000400085260008852600088526000885260008E4
:1000500085260008852600088526000885260008D4
:1000600085260008852600088526000885260008C4
:1000700085260008852600088526000885260008B4
:1000800085260008852600088526000885260008A4
:100090008526000885260008852600088526000894
:1000A0008526000885260008852600088526000884
:1000B0008526000885260008852600088526000874
:1000C0008526000885260008852600088526000864
:1000D0008526000885260008852600088526000854
:1000E00085260008852600088526000800000000F7
:1000F0000000000000000000000000000000000000
:0C01000000000000000000005FF808F1A3
:10010C0010B5054C237833B9044B13B10448AFF345
:10011C0000800123237010BD500D00200000000052
:10012C00A028000808B5034B1BB103490348AFF3E3
:10013C00008008BD00000000540D0020A02800081D
:10014C002DE9F84F904604469A460D469DF82860D6
:10015C0001EB030900EB020B5FFA8BFB5FFA89F9E9
:10016C00324649465846A4EB080701F08DF8FFB219
:10017C004946A5EB0A09324638465FFA89F901F07F
:10018C0083F832464946584601F07EF849463846CF
:10019C0008EB050904EB0A073246FFB25FFA89F94E
:1001AC00A4EB0A0401F070F8E4B232464946384632
:1001BC00A5EB080501F068F8EDB232464946204639
:1001CC0001F062F832462946384601F05DF83246B5
:1001DC0029462046BDE8F84F01F056B82DE9F84FF6
:1001EC00814688464FF0000B151A5E1A0135013610
:1001FC009DF828A0EDB2F6B25FFA8BF18E4210D9C1
:10020C0041440027CCB206E0484452462146C0B2D5
:10021C0001F03AF80137F8B28542F5D80BF1010B31
:10022C00EAE7BDE8F84F01F045B82DE9F04F85B08D
:10023C009DF8384082460194141A002C8B46A3EB8F
:10024C0001051DDC1ED04FF0FF336442002D1BDC7A
:10025C001CD04FF0FF326D4200920026AC42A146FA
:10026C00B8BFA946B046374609F10102029202997D
:10027C00B2B28A420CDD05B0BDE8F04F01F01AB8FD
:10028C000123E3E72346E1E70122E5E70095E4E7F4
:10029C00019A5FFA8BF15FFA8AF0039300F0F4FF96
:1002AC002744039B4F45A844C4BFA7EB09079A44B6
:1002BC00C845C2BF009AA8EB090893440136D6E79B
:1002CC002DE9F3411C4607460E4690469DF82050FA
:1002DC000B460095FFF7A9FF23463A4631463846B0
:1002EC000095FFF7A2FF234642462146384600956B
:1002FC00FFF79BFF2346424631464046089502B025
:10030C00BDE8F041FFF791BF10B49DF80440019493
:10031C0010BCFFF763BF2DE9F74306460F46904626
:10032C001D464FF000095C00C4F10304EBB25FFA08
:10033C0089F2CDF8008039463046FFF701FF002CDA
:10034C00A9BFA9EB050304EB890404EB830405F1B5
:10035C00FF3509F10109B4BF06340A344D45E5DA1D
:10036C0003B0BDE8F04300F0A5BF2DE9F74F804680
:10037C00894692461E4600255C00C4F103042F46B4
:10038C005FFA85FB08E0FBB2CDF800A05A4649465F
:10039C004046FFF7D5FE0137B742F4DD002CA9BF6C
:1003AC00AB1B04EB850404EB830406F1FF3605F16B
:1003BC000105B4BF06340A34AE42E0DA03B0BDE83E
:1003CC00F04F00F077BF2DE9F34791469A46074668
:1003DC0088469DF830409DF828509DF82C6000947C
:1003EC00FFF723FF33462A46514648460094FFF751
:1003FC001CFF43463A46314628460A9402B0BDE8F3
:10040C00F047FFF712BF2DE9F04F1D468BB09DF85A
:10041C005830A94281460F4690469DF850609DF891
:10042C005440019378D9A14200F28280A94205D3AD
:10043C003B462F461D464B46C1469846A74219D10E
:10044C00C1459EBF4346C8469946B04505D84E4562
:10045C0038BF4E465FFA86F94646B14502D20BB01C
:10046C00BDE8F08F3046019A3946013600F00CFF9A
:10047C00F6B2F2E723463C461F4633464E469946B3
:10048C005EE01F464346C846F9E7079A93FBF2F92C
:10049C00029AB1449BFBF2FA049AB2445FFA89F9CE
:1004AC005FFA8AFA1344009AD145934402D94A461A
:1004BC00D1469246CA4502D20134E4B25AE04846CB
:1004CC00019A214609F1010909935FFA89F900F0B3
:1004DC00DBFE099BEEE7089B9AFBF3F5029B454478
:1004EC009BFBF3F9039BB144EDB25FFA89F99A4493
:1004FC00009B4D459B4402D92B464D469946A94538
:10050C0002D20134E4B243E02846019A2146013577
:10051C0000F0BAFEEDB2F2E7A5428FD9A1422B460C
:10052C000D46AED82746B1461C46804616467FE798
:10053C00A54205D823462C461D46334646469846CA
:10054C004FF0000BA8EB060304932B1B0793A9EBAE
:10055C00060300933B1B0293A9EB080303937B1B3D
:10056C0008935B46AF42059518BF05F1FF3506941D
:10057C0018BFEDB2AC4288D9059BA4EB030A039BD0
:10058C0003FB0AFA069BA4EB030B009B03FB0BFB80
:10059C00BC42A0D90BB0BDE8F04F00F08BBE000000
:1005AC002DE9F74F0F4610F0800F18BF02379DF85A
:1005BC0030108046A2F120041CBFFFB24FF000089F
:1005CC00102B0191E4B229D100264FF0800B2B4A5D
:1005DC0002EB0414019BA55DEBB14FF0000A07EB95
:1005EC0006095FFA89F94BFA0AF22A4008EB0A006D
:1005FC0018BF01224946C0B20AF1010A00F044FEBC
:10060C00BAF1080FEFD10136102EE3D103B0BDE8DB
:10061C00F04F00F04FBEED43EDB2DEE7082B29D1D1
:10062C000026DFF85CB0E400019BEBB10BEB06039A
:10063C001D5D4FF0000A07EB06095FFA89F980236C
:10064C0043FA0AF22A4008EB0A0018BF0122494675
:10065C00C0B20AF1010A00F017FEBAF1080FEED190
:10066C000136082EE0D1D1E70BEB06031D5DED43FF
:10067C00EDB2DEE703B0BDE8F08F00BFC02B000881
:10068C00C82800082DE9F347102B04460D46914667
:10069C001E469DF828A009D14FF008080027FBB290
:1006AC0019F803203AB902B0BDE8F087082BFAD14B
:1006BC004FF00608F2E7204644442946E4B2CDF850
:1006CC0000A03346FFF76CFF782C82BFAD19EDB25A
:1006DC0000240137E3E72DE9F04F87B09DF8406027
:1006EC0098469DF84430102E054689460592049391
:1006FC0004D0082E0BD14FF0060A01E04FF0080A87
:10070C0000240A27039408F1FF3B444502D107B0AB
:10071C00BDE8F08F0122ABEB0403DBB2013BDBB293
:10072C00FF2B18D1059B0399B3FBF2F2B2FBF7F345
:10073C0007FB1322D3B291B9A34510DD6AB9049B10
:10074C00202200933346284649465544FFF728FF9C
:10075C000134EDB2D9E77A43E0E70122039203F1C9
:10076C003002049BD2B200933346ECE72DE9F74FED
:10077C0022240193002300908A4610781E4904FB22
:10078C0003F77D5C854233D10F447E785578AE42B9
:10079C002ED100264FF0800B019ABB19F5B29C7834
:1007AC001AB34FF00009009B05F0010803EBC808D1
:1007BC000AEB55055FFA88F8EDB24BFA09F22240C4
:1007CC0008EB090018BF01222946C0B209F1010942
:1007DC0000F05AFDB9F1080FEFD10136202EDBD114
:1007EC0003B0BDE8F04F00F065BDE443E4B2D8E7D8
:1007FC000133102BC3D1F3E7B03100082DE9F74FCB
:10080C004A240193002300908A461078214904FB66
:10081C0003F818F80150854237D1884498F80160E4
:10082C005578AE4231D100274FF0800B019A08EB7E
:10083C000703FCB29E782AB30323B4FBF3F54FF005
:10084C00000905EB4503E41A009B554403EBC40473
:10085C00E4B2EDB24BFA09F2324004EB090018BFD6
:10086C0001222946C0B209F1010900F00DFDB9F1D0
:10087C00080FEFD10137482FD8D103B0BDE8F04FA6
:10088C0000F018BDF643F6B2D6E70133062BBED105
:10089C00F3E700BFD03300082DE9F74F8224019312
:1008AC00002300908A4610781F4904FB03F77D5CF7
:1008BC00854234D10F447E785578AE422FD1002634
:1008CC004FF0800B802EF5B204D103B0BDE8F04F91
:1008DC0000F0F0BC019ABB199C78EAB14FF000090A
:1008EC00009B05F0030803EBC8080AEB95055FFABB
:1008FC0088F8EDB24BFA09F2224008EB090018BF58
:10090C0001222946C0B209F1010900F0BDFCB9F180
:10091C00080FEFD10136D5E7E443E4B2DEE701334B
:10092C00062BC2D1D1E700BF8C3500082DE9F84366
:10093C0004460D4617461E469DF82080C2F18009DC
:10094C0033780BB9BDE8F883102F0ED143463246ED
:10095C0029462046FFF70AFF3C44E4B24C45C2BF8F
:10096C00ED19EDB200240236EAE7182F06D1434602
:10097C00324629462046FFF741FFEDE7202FE1D113
:10098C004346324629462046FFF786FFE4E72DE929
:10099C00F04F0C464FF000094FF0800B85B00E99CC
:1009AC00234402919DF83C100732DBB20190039175
:1009BC004FEAE2080093009B9C4228D04FF0000ABB
:1009CC001AE0029B9A19039B12F80950E3B1002715
:1009DC00019B03EBC606F6B24BFA07F22A4006EB74
:1009EC00070018BF01222146C0B2013700F04CFCB1
:1009FC00082FF1D10AF1010A5FFA8AF64645E0DBCD
:100A0C000134E4B2C144D6E7ED43EDB2DFE705B003
:100A1C00BDE8F04F00F04EBC13B501241023009438
:100A2C00124A00211C20FFF72DFE102300941946BA
:100A3C000F4A1420FFF726FE009410230D4A2021A4
:100A4C002820FFF71FFE10230B4A302100940420AE
:100A5C00FFF718FE40F2DC5000F018FD40F2DC50BD
:100A6C0002B0BDE8104000F011BD00BF3E390008D7
:100A7C0048390008543900085B39000837B50024A0
:100A8C003F232146204600947F22FFF7A7FB012538
:100A9C000A21102308460B4A0095FFF7F3FD4FF48B
:100AAC007A7000F0F3FC204600953F237F2221460C
:100ABC00FFF794FB4FF47A7003B0BDE8304000F0C0
:100ACC00E5BC00BF183A000837B53F2300240125C8
:100ADC001A46214620460094FFF780FB21460095DC
:100AEC003F237F224020FFF779FB3A2305211A464A
:100AFC0008460095FFF7E4FB3A237A22052100947F
:100B0C004420FFF7DDFB4FF47A7000F0BFFC3A2372
:100B1C0005211A4608460095FFF7F6FB00943A2388
:100B2C007A2205214420FFF7EFFB40F2DC5003B0A2
:100B3C00BDE8304000F0AABC37B53F2300240125A6
:100B4C001A46214620460094FFF748FB21460095A3
:100B5C003F237F224020FFF741FB1F212A460846F6
:100B6C001B23FFF7D8FB22461B231F215F20FFF717
:100B7C00D2FB4FF47A7000F089FC1F212A460846FC
:100B8C001B23FFF7F2FB1B2322461F215F20FFF7DD
:100B9C00ECFB40F2DC5003B0BDE8304000F076BC1A
:100BAC00F0B53F230025012685B01A462946284674
:100BBC000095FFF713FB294600963F237F22402028
:100BCC003A24FFF70BFB05237A2721461846029699
:100BDC00019400941F22FFF7F6FB214605235F22A8
:100BEC000295019400974420FFF7EDFB4FF47A70C7
:100BFC0000F04CFC05232146184602960194009403
:100C0C001F22FFF700FC02950194009705235F2239
:100C1C0021464420FFF7F7FB40F2DC5005B0BDE85D
:100C2C00F04000F033BC000013B5012408230094FD
:100C3C00124A05210020FFF725FD1023104A192127
:100C4C0000940020FFF71EFD4FF47A7000F01EFC9C
:100C5C00009408230B4A05210020FFF713FD009494
:100C6C001023094A19210020FFF70CFD40F2DC503B
:100C7C0002B0BDE8104000F009BC00BFC03800084D
:100C8C00DF380008FF3800081E39000873B500244F
:100C9C0001252146204600941F237F22FFF79EFA50
:100CAC002146204600950823164AFFF7EBFC082343
:100CBC00154E10213246009301950A231E20FFF792
:100CCC000AFD4FF47A7000F0E1FB204600F014FBB3
:100CDC0021462046009510230C4AFFF7D3FC102325
:100CEC003246009320210A2301952820FFF7F3FCBC
:100CFC0040F2DC5000F0CAFB204602B0BDE8704068
:100D0C0000F0FABACD390008D2029649F23900083F
:100D1C0037B5012408230094204A00212D20FFF729
:100D2C00B1FC10221E4B104614210094FFF7FEFD5F
:100D3C004FF47A7000F0AAFB1A4D002000F0DCFA98
:100D4C0000940823184A00212D20FFF79BFC2B460A
:100D5C001822142100941020FFF7E8FD4FF47A704C
:100D6C0000F094FB002000F0C7FA009408230F4A0F
:100D7C0000212D20FFF786FC2B4620221421009405
:100D8C000020FFF7D3FD4FF47A7000F07FFB0020BA
:100D9C0003B0BDE8304000F0AFBA00BF983800088F
:100DAC009E380008B1380008AB380008BA38000883
:100DBC0013B501240021144B0846009380224023D4
:100DCC000194FFF7E4FD4FF47A7000F05FFB002113
:100DDC000E4B08460093802240230194FFF7D7FD69
:100DEC004FF47A7000F052FB0021094B0846009337
:100DFC00019440238022FFF7CAFD4FF47A7002B0B1
:100E0C00BDE8104000F042BB0000002000040020B0
:100E1C00000800202DE9F04F00210124002585B0A9
:100E2C00084600940F237F22FFF7D8F92946009536
:100E3C00A04B10222020FFF779FD22460623182113
:100E4C000A20FFF768FA2246032318210A20FFF72D
:100E5C0062FA2246062328210A20FFF75CFA224672
:100E6C00032328210A20FFF756FA224606233821AD
:100E7C000A20FFF750FA2246032338210A20FFF7F5
:100E8C004AFA1023DFF838B219465A460094142057
:100E9C00FFF7F8FB1022DFF82CA2DFF82C92DFF81A
:100EAC002C825346114600942420FFF73FFD4A46FE
:100EBC000094102320211420FFF7E4FB43460094F8
:100ECC00102220212420FFF731FD009410237A4AB0
:100EDC0030211420FFF7D6FB0094784B10223021E0
:100EEC002420FFF723FD2946284600943F237F2228
:100EFC00FFF7E6F9752214267E27104600943F234F
:100F0C000F21FFF792F931460294019600971023B6
:100F1C007A227620FFF777FA3A2102940191009712
:100F2C003E237A227620FFF76EFA224603231821FD
:100F3C000A20FFF71AFA304600941F23632210216F
:100F4C00FFF74CF910235A46194630460095FFF727
:100F5C0099FB10225346114600952420FFF7E6FC1E
:100F6C003A461C23172100947620FFF737F940F2FC
:100F7C00DC5000F08BFA2A46032318210A20FFF7D5
:100F8C00F4F92246032318210A20FFF7C4F930464E
:100F9C0000951F2363221021FFF720F910235A46D6
:100FAC00194630460094FFF76DFB1022534611464C
:100FBC0000942420FFF7BAFC3A4600951C23172115
:100FCC007620FFF70BF92246032328210A20FFF78E
:100FDC00CCF9304600942F2363222021FFF7FEF832
:100FEC004A463046009510232021FFF74BFB434621
:100FFC000095102220212420FFF798FC3A462A2342
:10100C00252100947620FFF7E9F84FF47A7000F070
:10101C003DFA2A46032328210A20FFF7A6F9224687
:10102C00032328210A20FFF776F9304600952F2359
:10103C0063222021FFF7D2F84A4630460094102351
:10104C002021FFF71FFB434600941022202124206F
:10105C00FFF76CFC3A4600952A2325217620FFF7F2
:10106C00BDF82246032338210A20FFF77EF93046CB
:10107C0000943F2363223021FFF7B0F830460095EF
:10108C0010230D4A3021FFF7FDFA00950B4B10226F
:10109C0030212420FFF74AFC009437233A463221B2
:1010AC007620FFF79BF840F2DC5005B0BDE8F04F1E
:1010BC0000F0ECB96B3900088C3900088F39000846
:1010CC007439000877390008803900088339000822
:1010DC00F7B55948012401F003FB0A237F22194676
:1010EC0000200094FFF7A1F83F230B211A46184665
:1010FC000094FFF79AF824237F2219463F2000948E
:10110C00FFF793F808234D4A214600200094FFF77F
:10111C00B9FA08234A4A21464E200094FFF7B2FA46
:10112C000823484A35210E200094FFF7ABFA082318
:10113C00454A0D2141200094FFF7A4FA02232246D0
:10114C0019216C20FFF7E7F81023404A1421712075
:10115C000094FFF797FA10233D4A1421482000947D
:10116C00FFF790FA08233B4A272141200094FFF710
:10117C0089FA1023384A2E2144200094FFF782FA72
:10118C00364B019400933322202310210620FFF7C5
:10119C00FEFB0F2601F0CCFA1027414201F00301AF
:1011AC0000F003024FF0010358BF4A4248201421BB
:1011BC00019400970A25FFF78EFA01F0B9FA90FB1B
:1011CC00F5F2012302FB1502142150200194009723
:1011DC00FFF781FA01F0ACFA90FBF5F2012302FB68
:1011EC0015021421602001940097FFF774FA01F0A6
:1011FC009FFA90FBF5F2012302FB15022E214420ED
:10120C0001940097FFF767FA01F092FA90FBF5F260
:10121C00012302FB15022E214C2001940097FFF7AD
:10122C005AFA013E4FF4FA7000F030F916F0FF064E
:10123C00B0D103B0F0BD00BF40E201009839000806
:10124C00A3390008AC390008B3390008B8390008D4
:10125C00BA390008BF390008C5390008000C002055
:10126C001FB54FF0FF338DF80C108DF80D00009367
:10127C0003AA02237821034800F0AAFB05B05DF80D
:10128C0004FB00BF7C110020CB0810B500EBC31091
:10129C00074C01F0070101232AB103FA01F1235C89
:1012AC001943215410BD8B40215C21EA0301F8E75E
:1012BC006C0D0020F8B5B0240E4F002600212046FE
:1012CC00FFF7CEFF00210220FFF7CAFF00211020FC
:1012DC00FFF7C6FF04F10073B03B07EBC315A85D25
:1012EC0040210136FFF7BCFF802EF8D10134B82C19
:1012FC00E3D1F8BD6C0D002008B501464FF48062B7
:10130C0038B1FF21054801F0E3F9BDE80840FFF7CB
:10131C00D1BF024801F0DCF9F7E700BF6C0D0020EB
:10132C0008B5C82000F0B2F80021AE20FFF798FFF6
:10133C0000210220FFF794FF00211020FFF790FFFF
:10134C0000214020FFF78CFF0021B020FFF788FF21
:10135C0000218120FFF784FF0021FF20FFF780FF91
:10136C000021A120FFF77CFF0021A620FFF778FFCA
:10137C000021A820FFF774FF00213F20FFF770FF2A
:10138C000021AD20FFF76CFF00218B20FFF768FFD9
:10139C0000213220FFF764FF0021C820FFF760FF17
:1013AC000021D320FFF75CFF00210846FFF758FF10
:1013BC000021D520FFF754FF00218020FFF750FFBC
:1013CC000021D920FFF74CFF00211F20FFF748FF19
:1013DC000021DA20FFF744FF00211220FFF740FF25
:1013EC000021DB20FFF73CFF00214020FFF738FFF6
:1013FC00BDE808400021AF20FFF732BF38B50E4BD7
:10140C00054618784FF47A73B3FBF0F30B4A106867
:10141C00B0FBF3F000F092F8044658B90F2D09D840
:10142C00024629464FF0FF3000F054F8044B20469A
:10143C001D6038BD012038BDE00C0020E80C0020F8
:10144C00E40C0020074A08B51368032043F010038E
:10145C00136000F02DF80020FFF7D0FF01F024F806
:10146C00002008BD00200240034A044B11681B7881
:10147C000B441360704700BF78110020E00C002073
:10148C00014B1868704700BF7811002038B504462E
:10149C00FFF7F6FF0546631C1EBF044B1B78E418D0
:1014AC00FFF7EEFF401B8442FAD838BDE00C002059
:1014BC00074A0002D36800F4E06023F4E0631B04E5
:1014CC001B0C43F0BF6343F400330343D3607047FA
:1014DC0000ED00E0174B30B5DC68C4F30224C4F116
:1014EC000703251D042B28BF0423062D4FF00105EF
:1014FC0098BF002405FA03F303F1FF3388BF033CC4
:10150C001940A14005FA04F4013C2240002842EAAB
:10151C0001024FEA0212AFBF00F16040064B00F02F
:10152C000F00D2B2A5BFD2B200F561401A5480F8B8
:10153C00002330BD00ED00E014ED00E00138B0F107
:10154C00807F0AD2F021064B064A586082F823109D
:10155C000020072298601A6070470120704700BF76
:10156C0010E000E000ED00E02DE9F74F00221646F8
:10157C00654BDFF8A4E1DFF8A4C14FF001080C685B
:10158C0008FA06F808EA0404A0457FD14D68122D2C
:10159C0000F0AF8000F28880022D00F0A7807CD88C
:1015AC00002D00F08E80012D00F09E804FF00F0971
:1015BC00FF2C93BF824606F18045083DD0F800B061
:1015CC0092BFB500D0F804B0AD0009FA05F82BEACB
:1015DC00080802FA05F588BF00F1040A48EA050577
:1015EC00CAF80050D1F804A01AF0805F4ED0474DD5
:1015FC00464FAD6926F0030845F00105BD61BD6994
:10160C0008F1804805F00105019508F5803806F0D1
:10161C00030B019D4FEA8B0BD8F8085009FA0BF914
:10162C0025EA09093A4DA84268D005F58065A8421B
:10163C0066D005F58065A84264D005F58065A842A2
:10164C000CBF0325042505FA0BF545EA0905C8F876
:10165C0008501D681AF4803F14BF2543A5431D6034
:10166C005D681AF4003F14BF2543A5435D609D6877
:10167C001AF4801F14BF2543A5439D60DD681AF43E
:10168C00001F14BF2C4325EA0404DC600136102E25
:10169C007FF473AF03B0BDE8F08F032D22D0112D72
:1016AC0084D1CA68043281E71A4FBD4209D012D8DE
:1016BC00DFF86C904D4504D009F580394D457FF429
:1016CC0075AF8A68C2B1012A0CBFC0F81080C0F88F
:1016DC00148008226AE77545F3D06545F1D0DFF830
:1016EC004490EBE7002261E7CA685FE7CA680832FA
:1016FC005CE7CA680C3259E7042257E70025A2E7D9
:10170C000125A0E702259EE70004014000100240DD
:10171C0000080140000021100000311000003210C0
:10172C0000001110000022100AB101617047090479
:10173C00FBE70268536913F480630DD06FF4806388
:10174C0053610423202203640023036380F83C309C
:10175C0080F83D2001207047184670472DE9F8436A
:10176C00044617469946C1F307488EB22568B8F16E
:10177C00010F0CBF6B69AB6936EA030314BF012080
:10178C00002008B9BDE8F8836B695A0512D52B689F
:10179C00202243F400732B606FF480636B6104238D
:1017AC00236400230120236384F83C3084F83D201B
:1017BC00BDE8F8837B1CD9D04FB9002320222363CA
:1017CC0084F83C3084F83D200320BDE8F883FFF713
:1017DC0057FEA0EB09008742C8D2EEE72DE9F8438B
:1017EC00044690461F46089EC1F307498DB22368F4
:1017FC00B9F1010F0CBF5B699B6935EA03030CBFA0
:10180C0001230023434502D00020BDE8F8837B1C54
:10181C00EDD05FB900232022236384F83C3084F898
:10182C003D20032084F83E30BDE8F883FFF728FE06
:10183C00801B8742DBD2EDE770B504460D46164699
:10184C0023685B691B0601D5002070BD2046FFF79D
:10185C0070FFA8B96A1CF3D065B9236C202243F041
:10186C002003236400230320236384F83C3084F892
:10187C003D2070BDFFF704FE801B8542E0D2ECE7F3
:10188C00012070BD70B504460D46164623685B6991
:10189C005B0701D5002070BD2046FFF74AFFA8B9B1
:1018AC006A1CF3D065B9236C202243F02003236417
:1018BC0000230320236384F83C3084F83D2070BD62
:1018CC00FFF7DEFD801B8542E0D2ECE7012070BD06
:1018DC0038B5044608B9012038BD90F83D3003F006
:1018EC00FF021BB980F83C2000F02AFD242322685B
:1018FC0084F83D30136823F00103136000F0B8FB4B
:10190C0063682F4A934230D82E4A9042E3D92E4A2C
:10191C002168B0FBF2F24A6001320A62284A0138AF
:10192C00934232D85B00B0FBF3F0431CC3F30B03C0
:10193C00042B38BF0423CB61226AE36900201343D4
:10194C000B60E268236913438B60A26963691343DC
:10195C00CB600B6843F001030B602023206484F8F8
:10196C003D30206384F83E0038BD184A9042B2D90D
:10197C00154D4FF49672B0FBF5F521686A434D6036
:10198C004FF47A75B2FBF5F2C6E7A26852B903EBD5
:10199C004303B0FBF3F0431CC3F30B036BB143F4F1
:1019AC000043C8E719225343B0FBF3F0431CC3F3C5
:1019BC000B0313B143F44043BDE70123BBE700BF66
:1019CC00A08601007F841E0040420F00FF083D00EE
:1019DC002DE9FF4104461F460D469046FFF750FD8A
:1019EC0094F83D300646202B04D00225284604B03E
:1019FC00BDE8F0810090192301225D492046FFF7D4
:101A0C00EDFE0028F1D194F83C30012BEDD00123F0
:101A1C0084F83C3023681A68D2075EBF1A6842F01B
:101A2C0001021A601A6822F400621A60212284F8FA
:101A3C003D20102284F83E2000222264A2F5803240
:101A4C006785E262628DC4F824802285E26A042AEA
:101A5C0004D0012A02D012F5803F04D11A6842F456
:101A6C0080721A6002E0226B122AF7D000960A9B51
:101A7C0000224FF001112046FFF7B0FE28BB23696E
:101A8C002268B3F5804F12D105F0FE05156133467F
:101A9C000A9A38492046FFF761FE0546A0B923682B
:101AAC0003905A6903929B690393039B50E0EB11DB
:101ABC0003F0060343F0F00313612F4933460A9AEF
:101ACC002046FFF74BFE48B1236C236C042B4FF0E0
:101ADC00000307D184F83C30012587E72368EDB279
:101AEC001D61D4E784F83C3003257FE732460A9920
:101AFC002046FFF7A1FE40B1236C042BF4D12268E1
:101B0C00136843F400731360E6E7616A20684B1CAA
:101B1C0063620B78228D0361638D013B9BB26385FD
:101B2C004769531E9BB27F0723850AD54BB18B1C8B
:101B3C0063624B78023A0361638D2285013B9BB251
:101B4C00638532460A992046FFF79CFE0028D3D1C4
:101B5C00238D002BCAD121680A6842F400720A60F6
:101B6C00202284F83C3084F83D2084F83E303DE758
:101B7C0002001000020001000800010003682DE9BA
:101B8C00F341DB07054610D42B689F075ED42B6806
:101B9C00190700F195802B685A0700F1BF80EA699C
:101BAC00002A40F02D81002014E0904C636803F073
:101BBC000C03042B07D0636803F00C03082B0CD127
:101BCC006368DE0309D523689C03DDD56B68002BA5
:101BDC00DAD1012002B0BDE8F0816B68B3F5803F2B
:101BEC0010D1236843F480332360FFF749FC064689
:101BFC0023689803C8D4FFF743FC801B6428F7D9EB
:101C0C000320E7E79BB9236823F480332360236820
:101C1C0023F480232360FFF733FC064623689903E3
:101C2C00B2D5FFF72DFC801B6428F7D9E8E7B3F594
:101C3C00A02F236803D143F480232360D1E723F43E
:101C4C0080332360236823F48023CDE7674C6368DB
:101C5C0013F00C0F07D0636803F00C03082B10D1A2
:101C6C006368DA030DD423689B0702D52B69012B1B
:101C7C00AFD123686A6923F0F80343EAC2032360F7
:101C8C0085E72A695A4B6AB101221A60FFF7F8FB03
:101C9C00064623689F07ECD4FFF7F2FB801B022853
:101CAC00F7D9ADE71A60FFF7EBFB064623689807F8
:101CBC007FF56DAFFFF7E4FB801B0228F6D99FE799
:101CCC00AA694A4C4B4BDAB101221A60FFF7D8FBD8
:101CDC000646636A9B070DD54FF4FA52464B1B68B8
:101CEC00B3FBF2F3019300BF019B5A1E0192002B30
:101CFC00F9D150E7FFF7C4FB801B0228E9D97FE735
:101D0C001A60FFF7BDFB0646636A9F077FF543AF7A
:101D1C00FFF7B6FB801B0228F6D971E7334CE36959
:101D2C00D80024D40127E36943F08053E361E369CD
:101D3C0003F080530093009B304E3368D90518D5BF
:101D4C00EB68012B26D1236A43F001032362FFF7D2
:101D5C0097FB41F288368046236A9B073FD5002FBC
:101D6C003FF41DAFE36923F08053E36117E70027CD
:101D7C00E2E7336843F480733360FFF781FB8046FE
:101D8C003368DA05DCD4FFF77BFBA0EB0800642892
:101D9C00F6D935E7ABB9236A41F2883823F0010351
:101DAC002362236A23F004032362FFF769FB0646D0
:101DBC00236A9807D3D5FFF763FB801B4045F7D9FF
:101DCC001EE7052B236A03D143F004032362BAE711
:101DDC0023F001032362236A23F00403B6E7FFF721
:101DEC004FFBA0EB0800B042B6D909E70010024047
:101DFC000000424280044242E80C00200070004087
:101E0C00224C636803F00C03082B3FF4E2AE002372
:101E1C001F4E022A33602BD1FFF732FB0746236893
:101E2C0099011FD42B6AB3F5803F05D16268A9686C
:101E3C0022F400320A436260696A62680B4322F43E
:101E4C0074121343636001233360FFF719FB0546DB
:101E5C0023689A013FF5A7AEFFF712FB401B02283F
:101E6C00F6D9CDE6FFF70CFBC01B0228D7D9C7E685
:101E7C00FFF706FB054623689B017FF594AEFFF741
:101E8C00FFFA401B0228F6D9BAE600BF0010024048
:101E9C006000424230B5194B87B002AC03F110051B
:101EAC00224618685968083303C2AB421446F7D16E
:101EBC0001238DF80430022311498DF805304B684D
:101ECC0003F00C02082A17D1C3F3834206A802447C
:101EDC00DB0312F8102C0CD54B680A48C3F34043B3
:101EEC00504306AA134413F8143CB0FBF3F007B0AC
:101EFC0030BD05485043FAE70248F8E7B828000817
:101F0C000010024000127A0000093D00544A2DE9ED
:101F1C00F0411368054603F007038B420E462AD3A3
:101F2C0029688C0734D4CA0747D44D4A136803F088
:101F3C0007039E42C0F082802A684A4C12F0040FBC
:101F4C0040F08780130706D563682A6923F4605331
:101F5C0043EAC2036360FFF79DFF6368424AC3F321
:101F6C000313D35CD840414B18600020FFF746FAAE
:101F7C000020BDE8F081136823F007030B431360C6
:101F8C00136803F007039942CAD00120BDE8F08121
:101F9C00344B11F0040F1EBF5A6842F4E0625A60D1
:101FAC00080742BF5A6842F460525A605A68A868DF
:101FBC0022F0F00202435A60B5E76A68294C012A04
:101FCC0023681CD113F4003FDFD0636841F28838DA
:101FDC0023F0030313436360FFF752FA6B68074661
:101FEC00012B14D1636803F00C03042B9DD0FFF775
:101FFC0047FAC01B4045F5D90320BDE8F081022A01
:10200C0002D113F0007FDFE713F0020FDCE7022BA5
:10201C000FD1636803F00C03082B86D0FFF730FA5E
:10202C00C01B4045F5D9E7E7FFF72AFAC01B40452E
:10203C00E2D8636813F00C0FF6D176E7136823F03F
:10204C00070333431360136803F007039E429CD1CC
:10205C0072E76368E96823F4E0630B43636071E73C
:10206C0000200240001002401E3A0008E80C00203C
:10207C00044B054A5B68C3F30223D35C034A106824
:10208C00D8407047001002402E3A0008E80C00209F
:10209C00044B054A5B68C3F3C223D35C034A106844
:1020AC00D8407047001002402E3A0008E80C00207F
:1020BC002DE9F0470568C2682B69016923F4405388
:1020CC0013432B618368EA680B43416922F4B052D5
:1020DC0022F00C020B431343EB606B69826923F40F
:1020EC00407313436B61404B81469D424FF0190482
:1020FC0046D1FFF7CDFF04FB00F3D9F804604FF095
:10210C006408B600B3FBF6F3B3FBF8F31E01FFF75C
:10211C00BFFF6043D9F804309B00B0FBF3F7FFF727
:10212C00B7FF6043D9F804309B00B0FBF3F3B3FB6B
:10213C00F8F308FB13731B013233B3FBF8F303F012
:10214C00F007FFF7A5FF6043D9F804209200B0FB1D
:10215C00F2FAFFF79DFF6043D9F804309B00B0FB07
:10216C00F3F3B3FBF8F308FB13A31B013233B3FBFC
:10217C00F8F303F00F033B433344AB60BDE8F08747
:10218C00FFF776FF04FB00F3D9F804604FF0640806
:10219C00B600B3FBF6F3B3FBF8F31E01FFF768FFD1
:1021AC006043D9F804309B00B0FBF3F7FFF760FFF6
:1021BC006043D9F804309B00B0FBF3F3B3FBF8F3A6
:1021CC0008FB13731B013233B3FBF8F303F0F00776
:1021DC00FFF74EFF6043D9F804209200B0FBF2FAEF
:1021EC00FFF746FFB7E700BF0038014010B50446C3
:1021FC0040B390F8393003F0FF021BB980F8382057
:10220C0000F0DAF92423226884F83930D3682046A8
:10221C0023F40053D360FFF74BFF236800201A69A7
:10222C0022F490421A615A6922F02A025A61DA6841
:10223C0042F40052DA602023E06384F8393084F8E9
:10224C003A3010BD012010BD102230B589B00DEB15
:10225C000200002100F03CFA254B264D9A692846D5
:10226C0042F008029A619A694FF4707102F0080208
:10227C000092009A9A69002442F004029A619A69C9
:10228C0002F004020192019A9A6942F010029A61DA
:10229C009A6902F010020292029A9A6942F02002A4
:1022AC009A619B69002203F020030393039BFFF7C1
:1022BC003BFA4FF4805304A90F48049305940694F9
:1022CC00FFF752F9042304A90C48049305940694CF
:1022DC00FFF74AF94FF4707304930123059302231B
:1022EC0004A9284606940793FFF73EF909B030BDC0
:1022FC0000100240000C014000100140001401408D
:10230C0008B50C480C4BDFF834E04FF4804280E801
:10231C000840002302618360C36043618361C36131
:10232C000362FFF7D5FA18B1BDE8084000F0BAB85F
:10233C0008BD00BF7C11002000580040A0860100A1
:10234C0010B5044686B01022002102A800F0C0F996
:10235C002268114B9A421DD1104C02A9A369104856
:10236C0043F00803A361A36903F008030093009BE7
:10237C004FF4406302931223039303230593FFF757
:10238C00F3F8E36943F48003E361E36903F4800346
:10239C000193019B06B010BD005800400010024094
:1023AC00000C014000B591B02822002106A800F0D5
:1023BC008FF91422002101A800F08AF90223069358
:1023CC0001230A93102306A80B93FFF7D7FB0021D8
:1023DC000F2301A801930291039104910591FFF73A
:1023EC0095FD11B05DF804FB08B5FFF72BF8FFF76E
:1023FC00D9FFFFF729FFFFF783FF00F0C1F8012297
:10240C0040212748FFF790F9012280212448FFF74B
:10241C008BF901224FF480712148FFF785F90122D5
:10242C004FF400711E48FFF77FF9FEF779FF00208B
:10243C00FEF762FFFEF7F0FA0020FEF75DFFFEF7F5
:10244C001DFB0020FEF758FFFEF73EFB0020FEF7B9
:10245C0053FFFEF771FB0020FEF74EFFFEF7A0FBCB
:10246C000020FEF749FFFEF7DFFB0020FEF744FFDC
:10247C00FEF70CFC0020FEF73FFFFEF749FC0020A6
:10248C00FEF73AFFFEF794FC0020FEF735FFFEF74F
:10249C00C1FC0020FEF730FFFEF71AFEC7E700BFB5
:1024AC00000C0140704700000E4B82B09A6942F05C
:1024BC0001029A619A6902F001020092009ADA69AB
:1024CC0042F08052DA61DB69074A03F080530193D2
:1024DC00019B536823F0E06343F00073536002B038
:1024EC00704700BF00100240000001407047FEE73B
:1024FC00FEE7FEE7FEE7704770477047FEF7B4BF94
:10250C0008B50A4B0246196809B9094919606946A8
:10251C00186802448A4206D900F0B0F80C23036014
:10252C004FF0FF3008BD1A6008BD00BF6C110020D1
:10253C00141200200F4B1A6842F001021A605968FD
:10254C000D4A0A405A601A6822F0847222F48032D2
:10255C001A601A6822F480221A605A6822F4FE0269
:10256C005A604FF41F029A604FF00062034B9A605E
:10257C00704700BF001002400000FFF800ED00E0C3
:10258C0008B54FF4E13E0A480A4B0C2280E808409B
:10259C00002342618360C36003618361C361FFF701
:1025AC0025FE18B1BDE80840FFF77CBF08BD00BF91
:1025BC00D01100200038014010B5044686B010221E
:1025CC00002102A800F084F82268174B9A4228D107
:1025DC0003F558439A6902A942F480429A619A69B8
:1025EC00124802F480420092009A9A6942F0040266
:1025FC009A619B6903F004030193019B4FF40073F0
:10260C0002930223039303230593FEF7ADFF4FF4CC
:10261C0080630293002302A9044803930493FEF7FA
:10262C00A3FF06B010BD00BF0038014000080140F8
:10263C00002103E00B4B5B58435004310A480B4B11
:10264C0042189A42F6D30A4A02E0002342F8043BAD
:10265C00084B9A42F9D3FFF76DFF00F015F8FFF71E
:10266C00C3FE7047403A000800000020500D0020C7
:10267C00500D002014120020FEE70000014B1868DA
:10268C00704700BFEC0C002070B500250C4E0D4CB3
:10269C00A41BA410A54209D100F0FCF800250A4E99
:1026AC000A4CA41BA410A54205D170BD56F82530C8
:1026BC0098470135EEE756F8253098470135F2E793
:1026CC00383A0008383A0008383A00083C3A000812
:1026DC0003460244934200D1704703F8011BF9E70B
:1026EC0038B5124B05461C68A36BD3B9182000F003
:1026FC0059F843F20E33A06303804AF6CD3343807E
:10270C0041F2342383804EF26D63C3804DF6EC634B
:10271C000381052343810B23012283810023C0E91C
:10272C0004230022A36B1D615A6138BDEC0C002000
:10273C00194B10B51C68A36BD3B9182000F032F8F4
:10274C0043F20E33A06303804AF6CD33438041F24B
:10275C00342383804EF26D63C3804DF6EC630381AA
:10276C00052343810B23012283810023C0E9042329
:10277C00A16B0A480A694B695043094C04FB0300DE
:10278C00A2FB04230132034443F10003C1E90423F7
:10279C0023F0004010BD00BFEC0C00202DF451586C
:1027AC002D7F954C024B0146186800F003B800BF12
:1027BC00EC0C002070B5CD1C25F0030508350C2D54
:1027CC0038BF0C25002D064601DBA94203D90C238A
:1027DC003360002070BD00F05BF8234A146821467A
:1027EC0091B9224C23681BB9304600F041F82060A7
:1027FC002946304600F03CF8431C26D10C233046C9
:10280C00336000F046F8E4E70B685B1B1AD40B2B23
:10281C000FD90B60CC18CD50304600F03AF804F1CB
:10282C000B00231D20F00700C31A1BD05A42E250A4
:10283C0070BD8C420BBF63684B681360636018BF3C
:10284C000C46E9E70C464968CAE7C41C24F00304AB
:10285C00A04205D0211A304600F00AF80130CDD044
:10286C002560D9E770BD00BF7011002074110020E5
:10287C0038B50023054C054608462360FFF740FE9B
:10288C00431C02D1236803B12B6038BD1012002009
:10289C0070477047F8B500BFF8BC08BC9E4670473F
:0C28AC00F8B500BFF8BC08BC9E467047A1
:1028B80002030405060708090A0B0C0D0E0F101079
:1028C80000000000000000001010101000100000B0
:1028D800282828000000000028287C287C282800B8
:1028E800103C503814781000004C2C100860600020
:1028F80030485020544834003010200000000000B8
:1029080008102020201008002010080808102000B7
:1029180000105438541000000010107C10100000F3
:102928000000000000180810000000007C000000F3
:1029380000000000003030000004081020400000B3
:1029480038444C54644438001030101010103800CB
:102958003844040810207C007C081008044438001F
:10296800081828487C0808007C407804044438008B
:1029780018204078444438007C04081020202000A7
:1029880038444438444438003844443C040830004F
:1029980000303000303000000030300030102000AF
:1029A800081020402010080000007C007C00000077
:1029B80020100804081020003844040810001000F3
:1029C800384404345C443800102844447C444400AF
:1029D80078444478444478003844404040443800BF
:1029E80070484444444870007C40407840407C0033
:1029F8007C404078404040003844405C44443C00BF
:102A08004444447C444444003810101010103800EA
:102A18001C080808084830004448506050484400E2
:102A28004040404040407C00446C5454444444007E
:102A3800444464544C4444003844444444443800B6
:102A48007844447840404000384444445448340072
:102A580078444478504844003C40403804047800A6
:102A68007C101010101010004444444444443800B2
:102A780044444444442810004444445454542800D2
:102A880044442810284444004444442810101000AA
:102A98007C04081020407C003820202020203800AA
:102AA800004020100804000038080808080838000A
:102AB80010284400000000000000000000007C0016
:102AC8002010080000000000000038043C443C00CE
:102AD800404058644444780000003840404438007E
:102AE8000404344C44443C00000038447C40380022
:102AF800382420702020200000003C44443C043846
:102B0800404058644444440010003010101038000D
:102B180008001808080848304040485060504800ED
:102B2800301010101010380000006854544444004D
:102B380000005864444444000000384444443800C9
:102B480000005864645840400000344C4C3404047D
:102B5800000058644040400000003C4038047800C1
:102B6800202070202024180000004444444C3400E5
:102B780000004444442810000000444454542800F1
:102B8800000044281028440000004444443C043811
:102B980000007C0810207C0010202040202010001D
:102BA8000010101010101000201010081010200035
:102BB8000000002054080000000000000000000091
:102BC8000000000000000000000000181818181885
:102BD80018180000181800000012362448000000D9
:102BE8000000000000000000000000242424FE482B
:102BF8004848FE48484800000000103854545030F7
:102C08001C1414545438101000000044A4A8A8A898
:102C1800541A2A2A2A440000000000304848485024
:102C28006EA494888976000000606020C0000000CF
:102C38000000000000000000000204080810101046
:102C4800101010080804020000402010100808089E
:102C58000808081010204000000000001010D638A6
:102C680038D61010000000000000000010101010EE
:102C7800FE1010101000000000000000000000000E
:102C880000000000606020C000000000000000009C
:102C98007F000000000000000000000000000000AD
:102CA8000000000060600000000001020204040847
:102CB8000810102020404000000000182442424222
:102CC8004242424224180000000000107010101008
:102CD80010101010107C00000000003C424242041A
:102CE80004081020427E00000000003C4242041804
:102CF8000402024244380000000000040C1424249A
:102D080044447E04041E00000000007E40404058F9
:102D180064020242443800000000001C244040586D
:102D280064424242241800000000007E4244080821
:102D380010101010101000000000003C4242422405
:102D480018244242423C000000000018244242423B
:102D5800261A02022438000000000000000018189B
:102D680000000000181800000000000000001818FB
:102D780000000018180830000000000204081020A5
:102D88004020100804020000000000000000FE00BF
:102D98000000FE00000000000000004020100804B1
:102DA80002040810204000000000003C4242620279
:102DB800040808001818000000000038445AAAAA9D
:102DC800AAAAB442443800000000001010182828AD
:102DD800243C444242E70000000000F844444478A0
:102DE8004442424244F800000000003E42428080D3
:102DF8008080804244380000000000F8444242428B
:102E08004242424244F80000000000FE424848782E
:102E18004848404242FE0000000000FE4248487810
:102E28004848404040E000000000003C44448080A6
:102E3800808E844444380000000000E74242424249
:102E48007E42424242E700000000007C1010101051
:102E580010101010107C00000000003E0808080840
:102E680008080808080888F0000000EE4448507078
:102E78005048484444EE0000000000E04040404014
:102E88004040404042FE0000000000EE6C6C6C6C5C
:102E98005454545454D60000000000C76262525281
:102EA8004A4A4A4646E200000000003844828282CC
:102EB8008282828244380000000000FC4242424282
:102EC8007C40404040E0000000000038448282829C
:102ED8008282B2CA4C380600000000F844444478A4
:102EE8004848444442E300000000003E424240207B
:102EF80018040242427C0000000000FE92101010EC
:102F08001010101010380000000000E74242424242
:102F180042424242423C0000000000E74242442450
:102F28002428281810100000000000D692929292CF
:102F3800AAAA6C4444440000000000E74224241874
:102F48001818242442E70000000000EE4444282812
:102F580010101010103800000000007E84040808CB
:102F68001020204242FC0000001E1010101010100B
:102F78001010101010101E000000404020201010EB
:102F88000804040202020101007808080808080879
:102F98000808080808087800000814220000000043
:102FA8000000000000000000000000000000000019
:102FB80000000000000000FF00601000000000009A
:102FC8000000000000000000000000000000003CBD
:102FD800421E2242423F0000000000C040404058CC
:102FE8006442424264580000000000000000001CD7
:102FF80022404040221C0000000000060202021E7F
:1030080022424242261B0000000000000000003C53
:10301800427E4040423C00000000000F1110107E2C
:1030280010101010107C0000000000000000003E8E
:10303800444438403C42423C000000C04040405CB0
:103048006242424242E70000000000303000007057
:1030580010101010107C00000000000C0C00001C68
:103068000404040404044478000000C04040404EB6
:103078004850684844EE000000000070101010101E
:1030880010101010107C000000000000000000F676
:103098004949494949ED000000000000000000DCF2
:1030A8006242424242E70000000000000000003C8B
:1030B80042424242423C000000000000000000D8AA
:1030C80064424242645840E0000000000000001ED4
:1030D80022424242261A020700000000000000EEC9
:1030E8003220202020F80000000000000000003EF0
:1030F80042403C02427C0000000000000010107CAE
:1031080010101010100C000000000000000000C695
:1031180042424242463B000000000000000000E737
:10312800422424281010000000000000000000D7EE
:103138009292AAAA44440000000000000000006E19
:10314800241818182476000000000000000000E78A
:1031580042242428181010E0000000000000007E1F
:1031680044081010227E000000030404040404082C
:1031780004040404040403000808080808080808EC
:10318800080808080808080800601010101010083F
:1031980010101010101060000000000000002052F5
:1031A8000C00000000000000C8AB01000100028014
:1031B8000440082010102FE8C106010001001FF08C
:1031C8000100010001007FFC0000B6AF0040004094
:1031D8007C40004001FC0044FE44204420442084FC
:1031E80048844484FD04450402280410B5E701001E
:1031F800010001003FF82108210821083FF82108B3
:10320800210821083FF8210A0102010200FED7D354
:1032180000007FF800100020004001800100FFFE40
:103228000100010001000100010001000500020089
:10323800BCBC10201020102013FEFC2010201020F1
:1032480015FC18843088D048105010201050518830
:103258002606CAF501000120011001107FFC038039
:103268000540054009201110210841048102010090
:1032780001000100CFB500F83F000400082010400D
:103288003F800100061018087FFC01040920111076
:10329800210845040200CDB310401020202023FE51
:1032A8004840F888110423FE4092F890409000901E
:1032B8001912E112420E0400C9E8000021F01110B1
:1032C80011100110020EF40013F8110811101090DB
:1032D80014A0184010A003180C06D6C37FFC444461
:1032E8007FFC01007FFC01001FF010101FF0101080
:1032F8001FF010101FF01010FFFE0000D2F40200A3
:1033080001003FF8000008200440FFFE00001FF005
:10331800101010101FF0101010101FF01010C1BF67
:1033280000001FF010101FF01010FFFE00001FF02B
:1033380011101FF011101FF001001FF001007FFC99
:10334800D1D5100008FE7F102220147C7F444454FD
:1033580048545254445448545154422844248842AE
:103368003082C9AB080008001FE020204040BFF8A9
:103378002108210821083FF820002002200220020D
:103388001FFE0000CDF800007FFC400440044214FA
:1033980052944A54442444244A544A54529461044A
:1033A800400440144008C2E71080108020F821082B
:1033B8004B10FCA0104020A04118FA0645F801085F
:1033C8001908E10841F80108C8AB00000000000036
:1033D80000380000300000680000440000C200010E
:1033E80081000300C00600700FFFFE101808601867
:1033F8000000180000180000186003FF8000180083
:103408000018000018000018081FFFFC000000004A
:103418000000B6AF000000000000000180000100BD
:103428000061003F810000010000010C0007FC0062
:10343800310C3FC10C06010C04010C0C8108084337
:10344800081062081022082FF40838140800080829
:103458000011180020F8004030000000B5E7000017
:10346800000000000018000010000010000010000C
:103478000FFFF00810200810200810200810200F57
:10348800FFE00810200810200810200810200FFF67
:10349800E008100000100800100800100400180CC4
:1034A800000FF8000000D7D3000000000000000063
:1034B800200FFFF0000060000080000300001400EF
:1034C80000180000180000180C7FFFFE001800000C
:1034D8001800001800001800001800001800001854
:1034E8000000180000180000F8000030000000007C
:1034F800BCBC0000000400000701800601000601B2
:103508000006010006C10C3F3FF00601000601005D
:1035180006010006FFF80708103E083026042006BA
:1035280004600602400602C0060180060380060CFD
:10353800601E103E0CE00C000000CAF50000000000
:103548000000001C000019800018E0001860001836
:103558002800181C3FFFE0003C00007C00005A00D7
:1035680000DA000099000119800318C006186004E9
:10357800183808181E3018084018000018000018DD
:1035880000000000C8AB00000000000000000003BD
:103598000000000380000007800000068000000C87
:1035A8004000001C200000183000003018000060A7
:1035B8000C0000C00700018003C0030002F807FFE9
:1035C800FF7C0801809030018000400180000001EC
:1035D8008000000181000001838001FFFFC000011D
:1035E80080000001800000018000000180000001CF
:1035F800800000018010000180381FFFFFFC0000E0
:10360800000000000000B6AF00000000000000004D
:103618000000080000000E0000000C00000C0C0068
:103628003FFE0C0010000C0000000C0000000C18FD
:103638000000FFFC00020C1800070C183FFF8C1854
:1036480001C00C1801C00C180180081803000818E4
:103658000210181806081818040C10180806101874
:10366800100630102FFB20103E0360101002C030EF
:103678000000803000010C30000203E0000C01E083
:103688000010008000000000B5E700000000000006
:103698000000000300000003800000030000000396
:1036A8000000000300000003000007FFFFC006033E
:1036B80000C0060300C0060300C0060300C00603DE
:1036C80000C0060300C007FFFFC0060300C00603D2
:1036D80000C0060300C0060300C0060300C007FFC1
:1036E800FFC006030080060300000003001000036B
:1036F800000800030008000300180003801C0001F4
:10370800FFF80000000000000000D7D30000000010
:103718000000000000000000000000C003FFFFE000
:10372800000001E00000030000000600000018008F
:10373800000030000001C0000001C000000180004E
:1037480000018010000180383FFFFFFC000180006D
:10375800000180000001800000018000000180005D
:10376800000180000001800000018000000180004D
:10377800000180000001800000018000003F8000FF
:10378800000700000002000000000000BCBC0000B0
:103798000000000000000180080001C00E00018048
:1037A8000C0001800C0001800C0001800C000198C5
:1037B8000C183FFFFFFC01800C0001800C00018009
:1037C8000C0001800C00018C0C2001B3FFF001C03B
:1037D80080600F8080603D8040C0318040C00180A3
:1037E8002180018021800180330001801E0001803A
:1037F8000C0001801E00018037000180E3C01F8398
:1038080080F8078E007C0230000000000000CAF536
:103818000000000000000000000100000001C000DE
:1038280000018C0000018700000183800001818075
:1038380000018080000180303FFFFFF81003C000C6
:103848000007C0000007A000000DA000000D9000B8
:10385800001990000019980000318C000061860062
:1038680000C1870000818380018181C0030180F04D
:103878000401807C080180381001801060018000FC
:10388800000180000001800000010000000000002D
:10389800313678313600C8ABB6AFB5E7D7D3BCBC44
:1038A800CAF500323478323400C8ABB6AFB5E7D7C2
:1038B800D3003332783332003678383A6162636441
:1038C80065666768696A6B6C6D6E6F707172737428
:1038D80075767778797A00387831363A6162636438
:1038E80065666768696A6B6C6D6E6F707172737408
:1038F80075767778797A003678383A414243444584
:10390800464748494A4B4C4D4E4F505152535455D7
:10391800565758595A00387831363A414243444547
:10392800464748494A4B4C4D4E4F505152535455B7
:10393800565758595A004F4C454420544553540043
:10394800312E332220534831313036003634583145
:103958003238007777772E6C636477696B692E63EA
:103968006F6D00CFB5CDB3C9E8D6C300412E00D2E4
:10397800F4C1BFC9E8D6C300422E00D1D5C9ABC92E
:10398800E8D6C300432E00CDF8C2E7C9E8D6C30085
:10399800323031382D30382D32350053617475721C
:1039A80064617900436C6F7564790054454D50002B
:1039B800430033322E3500504D322E3500393075E4
:1039C800672F6D33003678383A212223242526279D
:1039D80028292A2B2C2D2E2F3A3B3C3D3E3F405B7D
:1039E8005D5C5E5F607E7B7D7C00387831363A2195
:1039F80022232425262728292A2B2C2D2E2F3A3B13
:103A08003C3D3E3F405B5D5C5E5F607E7B7D7C0055
:103A1800424C41434B00000000000000000001023E
:103A2800030406070809000000000102030400005F
:043A38003101000850
:043A3C000D01000870
:103A40000000000000000000000000000000000076
:103A50007FE003911C3818007000FFFC0007FFFE98
:103A60006660045B224414018C017FFA00040002AA
:103A700036C00815408052020201BFF6003DB6DA9A
:103A80001F808811408034047101DFEE0025B6DA12
:103A90000F028811408018008801E01E0025B6DA68
:103AA000060A8811408034010401DFEE0025B6DAF1
:103AB000062A8811408052002001BFF6003DB6DA88
:103AC00006AA84512244140070017FFA0004000207
:103AD00006AA83911C3818002000FFFC0007FFFE97
:103AE00000000000000000000000000000000000D6
:103AF00000000000000000000000000000000000C6
:103B000000000000000000000000000000000000B5
:103B100000000000000000000000000000000000A5
:103B20000000000000000000000000000000000095
:103B30000000000000000000000000000000000085
:103B400000000000031FFC003FFC7FF000000000AD
:103B500000000000073FFE007FFCFFF800000000AF
:103B6000000000000F3006006000C01800000000D8
:103B7000000000001B3006006000C01800000000BC
:103B800000000000333006006000C0180000000094
:103B900000000000633006186000C018000000003C
:103BA00000000000C33006187FFCC01800000000B1
:103BB00000000000833006007FFCC01800000000F9
:103BC00000000000033FFE00000CC01800000000D1
:103BD00000000000033FFE00000CC01800000000C1
:103BE0000000000003300600000CC01800000000B8
:103BF0000000000003300618000CC0180000000090
:103C00000000000003300618000CC018000000007F
:103C10000000000003300600000CC0180000000087
:103C20000000000003300600600CC0180000000017
:103C30000000000003300600600CC0180000000007
:103C400000000000033FFE007FFCFFF800000000C2
:103C500000000000031FFC003FF87FF000000000A0
:103C60000000000000000000000000000000000054
:103C70000000000000000000000000000000000044
:103C80000000000000000000000000000000000034
:103C90000000000000000000000000000000000024
:103CA0000000000000000000000000000000000014
:103CB00000000000F9E30F00F1E01E3C00000000EE
:103CC000000000010A1510810A10214200000000C6
:103CD00000000000121110810A00214000000000C5
:103CE0000000000022111F810BE0217C0000000079
:103CF00000000000421110810A1021420000000063
:103D000000000000821110990A13214200000000F7
:103D100000000001F9E7CF18F1E31E3C00000000AD
:103D20000000000000000000000000000000000093
:103D30000000000000000000000000000000000083
:103D40000000000000000000000000000000000073
:103D50000000000000000000000000000000000063
:103D60000000000000000000000000000000000053
:103D70000000000000000000000000000000000043
:103D80000000000000000000000000000000000033
:103D90000000000000000000000000000000000023
:103DA0000000000000000000000000000000000013
:103DB0000000000000000000FF0000000000000004
:103DC000411C4141000000008100000000827C8213
:103DD0006322614100000000F100000000C682C2C1
:103DE00055415141000000008100000000AA80A25E
:103DF000497E494100000000FD00000000927C92D5
:103E00004140454100000000810000000082028A1C
:103E10004121432200000000F10000000082828660
:103E2000411E411C000000008100000000827C82D5
:103E30000000000000000000000000000000000082
:103E40000000000000000000000000000000000072
:103E50000000000000000000000000000000000062
:103E60000000000000000000000000000000000052
:103E70000000000000000000000000000000000042
:103E80000000000000000000000000000000000032
:103E90000000000000000000000000000000000022
:103EA0000000000000000000000000000000000012
:103EB0000000000000000000000000000000000002
:103EC00000000000000000000000000000000000F2
:103ED00000000000000000000000000000000000E2
:103EE00000000000000000000000000000000000D2
:103EF00000000000000000000000000000000000C2
:103F000000000000000000000000000000000000B1
:103F100000000000000000000000000000000000A1
:103F20000000000000000000000000000000000091
:103F30000000000003F803FFF803C0F000000000D9
:103F4000000000000FFE03FFF807F3FC0000000074
:103F50000000000018030300000FFFFE0000000037
:103F60000000000030018300001FFFFF0000000080
:103F7000000000006000C300001FFFFF0000000001
:103F8000000000006000C300001FFFFF00000000F1
:103F9000000000006000C300000FFFFE00000000F2
:103FA000000000006000C300000FFFFE00000000E2
:103FB000000000003001837FC007FFFC000000000C
:103FC00000000000300303FFF003FFF800000000D2
:103FD00000000000180603803801FFF00000000018
:103FE000000000000FFC030018007FC0000000006C
:103FF000000000001FFF00000C003F8000000000D8
:1040000000000000300180000C000E0000000000E5
:10401000000000006000C0000C0004000000000070
:10402000000000006000C0000C0000000000000064
:10403000000000006000C0000C0000000000000054
:10404000000000006000C0000C1000000000000034
:10405000000000006000C0000C1000000000000024
:10406000000000006000C6000C1E38CC00000000FC
:10407000000000006000C7001C1145320000000075
:10408000000000003001838038114522000000004C
:10409000000000001FFF01FFF0114522000000009A
:1040A000000000000FFE007FC0114522000000004C
:1040B0000000000000000000001E79220000000047
:1040C00000000000000000000000400000000000B0
:1040D00000000000000000000000400000000000A0
:1040E00000000000000000000000000000000000D0
:1040F00000000000000000000000000000000000C0
:1041000000000000000000000000000000000000AF
:104110000000000000000008000000000000000097
:10412000000000000000001400600000000000001B
:104130000000000000018022009004000000000048
:104140000000000000024042009004000000000057
:1041500000000000000640410108080000000000C7
:104160000000000000042081010808000000000099
:104170000000000000082081020410000000000080
:1041800000000000000820808204100000000000F1
:10419000000000000010210082021000000000005A
:1041A0000000000000201100840210000000000048
:1041B0000000000000401200440220000000000047
:1041C00000000000008012004801200000000000F4
:1041D0000000000000001200480120000000000064
:1041E0000000000000000C00300120000000000072
:1041F0000000000000000C003000C00000000000C3
:1042000000000000000000000000000000000000AE
:10421000000000000000000000000000000000009E
:10422000000000000000000000000000000000008E
:10423000000000000000000000000000000000007E
:10424000000000000000000000000000000000006E
:10425000000000000000000000000000000000005E
:10426000000000000000000000000000000000004E
:1042700000000000000000078000000000000000B7
:1042800000000000000000FFFE0000000000000031
:10429000000000000000038003C0000000000000D8
:1042A0000000000000000C000038000000000000CA
:1042B00000000000000038000007000000000000BF
:1042C000000000000001E0000001C000000000004C
:1042D00000000000000E0000000060000000000070
:1042E000000000000018000000001800000000009E
:1042F000000000000060000000000400000000005A
:10430000000000000040000000000200000000006B
:10431000000000000080000000000100000000001C
:10432000000000000180000000000180000000008B
:104330000000000001000C00000000C000000000B0
:104340000000000001000FC000000060000000003D
:104350000000000003001FFE00000030000000000D
:104360000000000003003FFFFF00001000000000FD
:104370000000000007007FFFFFFFC01000000000EA
:10438000000000000600FFFFFFFFE010000000003B
:10439000000000000603FFFFFFFFE0200000000018
:1043A00000000000060FFFFFFFFFE06000000000BC
:1043B00000000000063FFFFFFFFFF0C0000000000C
:1043C00000000000073C3FFFF87FF1800000000084
:1043D00000000000073FFFFFFFFFF10000000000AA
:1043E00000000000033FFFFFFFFFF300000000009C
:1043F00000000000032000FF0007F20000000000A2
:1044000000000000010FFF7EFFFBE700000000003E
:1044100000000000019F7F81FDFC0F800000000074
:104420000000000001BE3F9DF8FDFF80000000007D
:104430000000000000DF7FBCFDFBFF8000000000EB
:10444000000000000067FE7E7FE3FF000000000028
:1044500000000000003801FF800FFE000000000097
:1044600000000000001FFFFFFFFFFC000000000035
:1044700000000000001FFFFFFFFFF8000000000029
:1044800000000000000FFFFFFFFFE0000000000041
:10449000000000000007FE007FFFC00000000000D9
:1044A000000000000003FF00FFFF0000000000000C
:1044B000000000000001FFC7FFFE00000000000038
:1044C000000000000000FFFFFFF8000000000000F7
:1044D0000000000000003FFFFFE0000000000000BF
:1044E0000000000000000FFFFF800000000000003F
:1044F00000000000000003FFFC00000000000000BE
:1045000000000000000000FFE000000000000000CC
:10451000000000000000000000000000000000009B
:10452000000000000000000000000000000000008B
:104530000000000200000000000000000000000079
:104540000000000700000000000000000000000064
:104550000000000F8000000001838061C0000000A7
:104560000000000F80F000000782E3E1B0000000CF
:104570000000000F801C00000C6C023F00000000D7
:104580000000000E0003000000FE003F800000005D
:104590000000000600F180000F81F7C07C000000E1
:1045A000000000038018800003FF80FFE00000008F
:1045B00000000001C00C40000218818C6000000067
:1045C00000000000E18440000218818C60000000BF
:1045D000000000007FC2400003FF81FFE0000000F8
:1045E000000000003FE24000020031800C000000AB
:1045F000000000000FC0000003FFF0FFFC000000FF
:10460000000000000000000001FFC07FF00000007B
:10461000000000000000000000000000000000009A
:10462000000000000000000000000000000000008A
:10463000000000000000000000000000000000007A
:1046400000000E0000000000000E0000000000004E
:104650000E0000000001800E0020000001C00000DC
:1046600070000000C00000E0000000E03F81C000DA
:10467000000061FFF08000000003C0F800000000AF
:1046800007001C000000001E000F0000007C1C0042
:10469000031F80007C1C07FF1F80007C1C1FFF9FE6
:1046A0008000001C7C03F80000000FF0007C00007C
:1046B00003FF00000FE0000FF2000007FE001F8064
:1046C0000000007F803C0000000003807C000000B0
:1046D0000003C0700000000001C070000000000175
:1046E000C0780000000001C07C0000000003C03C56
:1046F0000000000007803E000000003F800FE1C086
:10470000001FFC0003FFFC03FFF00000FFFFFFFFA2
:1047100000000000FFFF800000000001FC0000001E
:10472000010000001000000000A24A04F00C00206C
:104730000000000000000000000000000000000079
:104740000000000000000000000000000000000069
:104750000000000000000000000000000000000059
:104760000000000000000000000000000000000049
:104770000000000000000000000000000000000039
:104780000000000000000000000000000000000029
:040000050800263D8C
:00000001FF
